:100000000C94FD080C9425090C9425090C942509E1
:100010000C9425090C94850E0C9425090C94250943
:100020000C9425090C9425090C9425090C94340F83
:100030000C9425090C9425090C94AC0E0C942509FC
:100040000C9425090C94C30D0C9425090C942509D6
:100050000C9425090C94720F0C9425090C94250915
:100060000C9425090C9425090001010203040506DE
:10007000000708090A0B0C020D0E0F1011121302D3
:10008000001415020A16171800191A02001B1C0288
:100090001D1E1F2021211D1E22232425262728273F
:1000A000292A2B2C292A2D2E2F302D2731322D2E87
:1000B00031323325292728272230332522302D2E8F
:1000C0002134352121212134363738393A3B3C3D22
:1000D0003E3F40413E3F42434445423D4647424306
:1000E000464748393E3B3C3D364548393645424314
:1000F00021494A21212121494B4C4C4D4E4F4F5013
:10010000515253545155565758595A5B5C5D5E577E
:100110005F60614D626364654B66674D4B6869570C
:100120001D6A6B202121216C00C0F0F8FC7C3E1E72
:100130001E3E7CFCF8F0C00000FFFFFFFF00000047
:10014000000000FFFFFFFF0000030F1F3F3E7C7811
:10015000787C3E3F1F0F0300000080C0E0F0F8FCF9
:10016000FEFE000000000000000001010101FFFF91
:10017000FFFF000000000000000000000000FFFF83
:10018000FFFF0000000000000000787878787F7F93
:100190007F7F78787878000000010101010000007D
:1001A00080C0F0FFFF7F1F000000C0F0F8FC7E3F22
:1001B0001F0F070301000000007F7F7F7F797878A1
:1001C0007878787E7E7E7E00007E7E7E7E1E1E1E7D
:1001D0001E1E1EFEFEFEFE0000000000000060F07D
:1001E000F8FCFEFF9F0F0700008080808000000069
:1001F00001030FFFFFFEF8000000000000000000F8
:1002000080E0F8FEFE0000000000000080E0F8FE44
:100210003FFFFFFFFF00000000E0F8FEFFEFE3E01C
:10022000E0FFFFFFFFE0E00000010101010101012B
:10023000017F7F7F7F01010000FEFEFEFE1E1E1E6D
:100240001E1E1E7E7E7E7E00007F7F7F7F787878F8
:1002500078F8F0F0E0C000000080808080000000AE
:10026000000001FFFFFFFF0000FFFFFFFFF0F0F0C5
:10027000F0F0E0E0C080000000FFFFFFFF000000A2
:10028000000103FFFFFFFE0000000000000000006F
:1002900080F0FEFFFF3F070000000000000080F834
:1002A000FFFFFF1F010000000000000000007F7F33
:1002B0007F7F01000000000000079FFFFFFCF8F0B7
:1002C000F0F8FCFFFF9F070000FEFFFFFF030100A7
:1002D000000103FFFFFFFE00001F7FFFFFF0E0C0F3
:1002E000C0C0C0FFFFFFFF000000000001010303CA
:1002F000030303FFFFFFFF0000000000000080C0B9
:10030000C080000000000000000000000003070F94
:100310000F070300000000000000000000C0E0F034
:10032000F0E0C00000000000000000000000010339
:1003300003010000000000000000000000000000B9
:10034000000000000000000000F2E6CE0E0E0E0ECF
:100350000E0E0602F8FCFE00007F3F1F00000000AA
:10036000000000001F3F7F0000FFFEFC00000000B7
:1003700000000000FCFEFF00005F4F6770707070AF
:10038000707060401F3F7F00000000000000000010
:1003900000000000F8FCFE0000000000000000006B
:1003A000000000001F3F7F00000000000000000070
:1003B00000000000FCFEFF000002060E0E0E0E0EF6
:1003C0000E0E0602F8FCFE0000000080C0C0C0C097
:1003D000C0C0C0C09F3F7F0000FFFEFC01010101C3
:1003E0000101010100000000005F4F677070707034
:1003F0007070604000000000000000000101010179
:1004000001010101FCFEFF0000404060707070704F
:10041000707060401F3F7F0000F0E0C000000000EF
:1004200000000000F8FCFE00007F3F9FC0C0C0C07D
:10043000C0C0C0C09F3F7F0000F2E6CE0E0E0E0E81
:100440000E0E060200000000007F3F9FC0C0C0C02B
:10045000C0C0C0C08000000000FFFEFC010101011F
:1004600001010101FCFEFF000000000000000E0E73
:100470000E0E000000000000000000000000707080
:10048000707000000000000000F8FCFEFEFE0E0E82
:100490000E0E0E0EFEFEFC0000FFFFFFFF7F0000B1
:1004A00000000000FFFFFF0000FFFFFF0000000052
:1004B0000000FEFFFFFFFF00003F7F7F7070707045
:1004C00070707F7F7F3F1F00000000000000000071
:1004D00000000000FCFEFC00000000000000000026
:1004E00000000080FFFFFF0000000000000000008F
:1004F0000000FFFFFFFFFF00000000000000000001
:1005000000003F7F7F3F1F0000080C0E0E0E0E0EF6
:100510000E0E0E0EFEFEFC00000080C0C0C0C0C06B
:10052000C0C0C0C0FFFFFF0000FFFFFF03030303C5
:100530000303030303010000003F7F7F70707070AE
:10054000707070707030100000000103030303032B
:100550000303FFFFFFFFFF000030707070707070CA
:1005600070707F7F7F3F1F0000F8FCFEFEFC0000E4
:1005700000000000FEFEFC0000FFFFFFFFFFC0C008
:10058000C0C0C0C0FFFFFF0000F8FCFEFEFE0E0E64
:100590000E0E0E0E0E0E0C0000FFFFFFFFFFC0C080
:1005A000C0C0C0C0C080000000FFFFFF0303030302
:1005B0000303FFFFFFFFFF00000000000000040E28
:1005C0000E04000000000000000000000000207089
:1005D000702000000000000000F0FCFE3E0E0E0E39
:1005E0000E0E0E3EFEFCF00000FFFFFF00000000BC
:1005F00000000000FFFFFF00000F3F7F7C70707065
:100600007070707C7F3F0F00000000000030FCFE27
:10061000FEFC00000000000000000000000000FFE1
:10062000FFFF000000000000000020707070707F6D
:100630007F7F70707020000000307C7E3E0E0E0EBA
:100640000E0E0E3EFEFCF000000000000000000058
:100650008080C0F0FFFF3F0000E0F8FC7E1E0F0F1F
:100660000707030301000000003F7F7F7870707070
:100670007070707078783000000000000080C0C09A
:10068000C0C0C0F0FFFF3F000000000000000101FB
:1006900001010107FFFFFE00000C3E7E7C707070C0
:1006A0007070707C7F3F0F00000000000000008031
:1006B000E0F8FCFEFC00000000000080E0F87E1F77
:1006C0000701FFFFFF00000000183E3F3F393838A8
:1006D0003838FFFFFF381000000000000000000065
:1006E00000003F7F3F00000000FCFEFE1E0E0E0ECD
:1006F0000E0E0E0E1E1E0C00003FFFFFF0C0C0C00D
:10070000C0C0C0C0C08000000000000101010101A4
:1007100001010107FFFFFE0000F0FCFE3E0E0E0E81
:100720000E0E0E3E7E7C300000FFFFFFC0C0C0C03A
:10073000C0C0C0C0C080000000FFFFFF0101010178
:1007400001010107FFFFFE00000C1E1E0E0E0E0E23
:100750000E0E0E0EFEFEFC00000000000000000069
:100760000080E0FCFF3F070000000000000000F0F8
:10077000FEFF1F0300000000000000000000003F1B
:100780007F3F000000000000003FFFFFF0C0C0C03E
:10079000C0C0C0F0FFFF3F0000FEFFFF07010101E6
:1007A00001010107FFFFFE00003FFFFFF0C0C0C0D6
:1007B000C0C0C0C0FFFFFF00000000010101010137
:1007C00001010101FFFFFF00000000000000070F12
:1007D0000F07000000000000000000000000E0F033
:1007E000F0E00000000000000000000000001E3FDC
:1007F0003F1E00000000000006080000000000008E
:1008000000000608000000000000000006080000CC
:1008100000000000000006080000000000000000CA
:1008200006080000000000000000060800000000AC
:10083000000000000608000000000000000006089C
:1008400030483000000000000608000000000000F2
:10085000000006080000000000000000060800007C
:10086000000000000000060800000000000000007A
:10087000060800000000000000000608000000005C
:10088000000000000608000000000000000006084C
:10089000000000000000000006080000000000004A
:1008A000000006080000000000000000060800002C
:1008B000000000000000060800000000000000002A
:1008C000060800000000000000000608000000000C
:1008D00000000000060800000000000000000608FC
:1008E00000000000000000000608000000000000FA
:1008F00000000608000000000000000006080000DC
:1009000000000000000006080000000000000000D9
:1009100006080000000000000000060800000000BB
:1009200000000000060800000000000000000608AB
:1009300000000000000000000608000000000000A9
:10094000000006082020202020002000060848483B
:1009500048000000000006085050F850F8505000C1
:1009600006082078A07028F020000608C0C81020D3
:100970004098180006086090A040A89068000608FB
:100980006020400000000000060810204040402089
:1009900010000608402010101020400006080050EB
:1009A00020F8205000000608002020F82020000039
:1009B000060800000000006020400608000000F863
:1009C000000000000608000000000060600006084B
:1009D00000081020408000000608708888888888F9
:1009E0007000060820602020202070000608708813
:1009F00008304080F80006087088083008887000C9
:100A0000060810305090F81010000608F880F00822
:100A1000088870000608304080F08888700006085A
:100A2000F8081020404040000608708888708888C8
:100A3000700006087088887808106000060800605A
:100A400060006060000006080000606000602040F8
:100A50000608102040804020100006080000F80022
:100A6000F8000000060880402010204080000608A2
:100A70007088081020002000060870880868A8A860
:100A800070000608708888F8888888000608F08852
:100A900088F08888F0000608708880808088700060
:100AA0000608E09088888890E0000608F88080F0CA
:100AB0008080F8000608F88080F0808080000608BA
:100AC00070888080988878000608888888F88888E8
:100AD00088000608702020202020700006083810AA
:100AE00010101090600006088890A0C0A0908800A8
:100AF0000608808080808080F800060888D8A8A832
:100B00008888880006088888C8A898888800060809
:100B100070888888888870000608F08888F080804F
:100B20008000060870888888A89068000608F08809
:100B300088F0A0908800060870888070088870008F
:100B40000608F820202020202000060888888888B1
:100B500088887000060888888888885020000608E1
:100B6000888888A8A8A8500006088888502050883F
:100B70008800060888888850202020000608F80889
:100B800010204080F800060870404040404070004F
:100B900006080080402010080000060870101010A1
:100BA00010107000060820508800000000000608A1
:100BB00000000000000000F80608402010000000BF
:100BC0000000060800007008788878000608808019
:100BD000B0C88888F0000608000070808088700027
:100BE0000608080868988888780006080000708859
:100BF000F88070000608304840E040404000060899
:100C0000000078888878087006088080B0C88888D6
:100C100088000608200060202020700006081000D0
:100C20003010101090600608808090A0C0A0900046
:100C30000608602020202020700006080000D0A8B0
:100C40008888880006080000B0C8888888000608E0
:100C5000000070888888700006080000F08888F01E
:100C60008080060800007888887808080608000058
:100C7000B0C8808080000608000078807008F0000E
:100C800006084040E04040483000060800008888E0
:100C900088986800060800008888885020000608A8
:100CA00000008888A8A8500006080000885020503E
:100CB0008800060800008888887808700608000008
:100CC000F8102040F80006081020204020201000D6
:100CD0000608202020202020200006084020201088
:100CE0002020400006086890000000000000060870
:100CF00000000000000000000608000000000000E6
:100D000000000608000000000000000006080000C7
:100D100000000000000006080000000000000000C5
:100D200006080000000000000000060800000000A7
:100D30000000000006080000000000000000060897
:100D40000000000000000000060800000000000095
:100D50000000060800000000000000000608000077
:100D60000000000000000608000000000000000075
:100D70000608000000000000000006080000000057
:100D80000000000006080000000000000000060847
:100D90000000000000000000060800000000000045
:100DA0000000060800000000000000000608000027
:100DB0000000000000000608000000000000000025
:100DC0000608000000000000000006080000000007
:100DD00000000000060800000000000000000608F7
:100DE00000000000000000000608000000000000F5
:100DF00000000608000000000000000006080000D7
:100E000000000000000006080000000000000000D4
:100E100006080000000000000000060800000000B6
:100E200000000000060800000000000000000608A6
:100E300000000000000000000608000000000000A4
:100E40000000060800000000000000000608000086
:100E50000000000000000608000000000000000084
:100E60000608000000000000000006080000000066
:100E70000000000006080000000000000000060856
:100E8000000000000000000006085000F880F0801C
:100E9000F80006080000000000000000060800003E
:100EA0000000000000000608000000000000000034
:100EB0000608000000000000000006080000000016
:100EC0000000000006080000000000000000060806
:100ED0000000000000000000060800000000000004
:100EE00000000608000000000000000006080000E6
:100EF00000000000000006080000000000000000E4
:100F000006080000000000000000060800000000C5
:100F100000000000060800000000000000000608B5
:100F20000000000000000000060850007088F880F3
:100F30007000060800000000000000000608000025
:100F40000000000000000608000000000000000093
:100F50000608000000000000000006080000000075
:100F60000000000006080000000000000000060865
:100F700000000000000000000608708888F88888DB
:100F800088000608F88080F08888F0000608F0885D
:100F900088F08888F0000608F880808080808000D3
:100FA00006083050505050F888000608F88080F04D
:100FB0008080F8000608A8A8A870A8A8A8000608BD
:100FC00070880810088870000608888898A8C88863
:100FD00088000608A88898A8C88888000608888815
:100FE00090E09088880006083848888888888800BB
:100FF000060888D8D8A8A88888000608888888F8AD
:1010000088888800060870888888888870000608A4
:10101000F8888888888888000608F0888888F080A2
:101020008000060870888080808870000608F8209C
:101030002020202020000608888888887808F00072
:10104000060870A8A8A8A870200006088888502064
:10105000508888000608888888888888F8080608E4
:1010600088888888F80808000608A8A8A8A8A8A85A
:10107000F8000608A8A8A8A8A8A8F8080608C0406C
:101080004070484870000608888888C8A8A8C8002A
:1010900006084040407048487000060870880838CC
:1010A00008887000060890A8A8E8A8A8900006087C
:1010B0007888888878488800060800007008788852
:1010C00078000608186080F0888870000608000024
:1010D000F088F088F00006080000F880808080002A
:1010E00006080000305050F888000608000070889C
:1010F000F880700006080000A8A870A8A8000608DC
:101100000000708810887000060800008898A8C841
:101110008800060870008898A8C8880006080000A3
:101120008890E09088000608000038488888880089
:101130000608000088D8A88888000608000088886B
:10114000F888880006080000708888887000060803
:101150000000F8888888880006080000F088F08081
:101160008000060800007088808870000608000073
:10117000F820202020000608000088887808F00069
:101180000608000070A8A87020000608000088501B
:10119000205088000608000088888888F80806081B
:1011A00000008888F808080006080000A8A8A8A879
:1011B000F80006080000A8A8A8A8F808060800007B
:1011C000C04070487000060800008888C8A8C800A1
:1011D0000608000040407048700006080000708853
:1011E000388870000608000090A8E8A8900006085B
:1011F0000000788878488800DC1611241FBECFEFE5
:10120000D8E0DEBFCDBF12E0A0E0B1E0E2E1F4E360
:1012100002C005900D92AC32B107D9F726E0ACE2DE
:10122000B2E001C01D92A236B207E1F718E0CDEF9F
:10123000D8E004C02197FE010E945017CC3FD1078F
:10124000C9F70E9455160C94071A0C940000982FA9
:101250009695969596959E71292F220F220F920FA3
:101260008F70890F08950E946214882371F080EDB9
:101270000E947C148EE00E947C1484E00E947C1406
:1012800080E00E947C140E9478140895CF93DF932D
:10129000EC010E946214882341F080ED0E947C14CE
:1012A00080E00E947C140E9478140E9462148823BB
:1012B000A1F081ED0E947C140E949E140E942709D7
:1012C00088830E949E140E94270989830E94A81483
:1012D0000E9427098A830E947814DF91CF91089594
:1012E000CF93DF93EC010E946214882341F080EDDC
:1012F0000E947C1483E00E947C140E9478140E9457
:1013000062148823C9F081ED0E947C140E949E140F
:101310000E94270988830E949E140E9427098983BE
:101320000E949E140E9427098A830E94A8140E948A
:1013300027098B830E947814DF91CF9108950F9332
:101340001F93CF93DF938C01EB010E9462148823DB
:1013500041F080ED0E947C1480E00E947C140E9489
:1013600078140E946214882359F181ED0E947C1444
:101370000E949E140E942709F80180830E949E14F7
:101380000E942709F80181830E949E140E94270968
:10139000F80182830E949E140E94270988830E947C
:1013A0009E140E94270989830E949E140E94270987
:1013B0008A830E94A8140E9427098B830E947814B4
:1013C000DF91CF911F910F9108950F931F93CF93AA
:1013D0008C010E946214882359F180ED0E947C14D4
:1013E00081E10E947C140E9478140E946214882378
:1013F000F9F081ED0E947C140E949E14F801808314
:101400000E94A814C82F0E9478142C2F30E086E088
:10141000359527958A95E1F749E1429FC001439FA1
:10142000900D112464E670E00E94F116F8018183AA
:10143000CF911F910F9108950F931F93CF938C011C
:101440000E946214882381F180ED0E947C1480E068
:101450000E947C14F8018081CAE06C2F0E94E5167E
:10146000292FF0E18F9FC0011124822B0E947C1450
:10147000F80181816C2F0E94E516292FF0E18F9FE2
:10148000C0011124822B0E947C14F80182816C2FF0
:101490000E94E516292FF0E18F9FC0011124822BB5
:1014A0000E947C140E947814CF911F910F9108958F
:1014B0000F931F93CF938C010E9462148823E9F14C
:1014C00080ED0E947C1483E00E947C14F8018081EE
:1014D000CAE06C2F0E94E516292FF0E18F9FC00112
:1014E0001124822B0E947C14F80181816C2F0E94B0
:1014F000E516292FF0E18F9FC0011124822B0E9455
:101500007C14F80182816C2F0E94E516292FF0E1EE
:101510008F9FC0011124822B0E947C14F8018381CB
:101520006C2F0E94E516292FF0E18F9FC001112436
:10153000822B0E947C140E947814CF911F910F91EE
:101540000895FC0190818481292F281B91F08381CB
:10155000820F83832281682F082E000C770B422F85
:1015600050E04617570714F4138202C087FD238307
:1015700094830895FC01F8948181118278940895F0
:1015800060E480E80E943F140895682F70E040E016
:1015900054E08CE292E00E945617089560E074E0F7
:1015A0008CE292E00E94F11308958038910530F5A5
:1015B0006034710518F5FB0123E0F595E7952A9550
:1015C000E1F728E0E29F60191124F695FE2FEE273F
:1015D000F795E7958E0F9F1FFC01E45DFD4F81E0BD
:1015E00090E001C0880F6A95EAF7442319F09081D2
:1015F000892B03C080959081892380830895A5E07D
:10160000B0E0E5E0FBE00C9405177C017D836C8382
:101610005A0129010B838A01081B190B17FF03C00C
:1016200011950195110962012C813D81C21AD30ADD
:10163000D7FE03C0D194C194D108EA14FB041CF076
:101640002FEF3FEF02C021E030E03A8329838C8105
:101650009D818415950524F022242A94322C03C000
:1016600022242394312C38016C187D084B81B2015F
:10167000C5010E94D50A882499248C189D08EA1473
:10168000FB04F1F04B816C817D81C7010E94D50A7A
:10169000C301880F991F8816990634F46C187D08C9
:1016A00029813A81E20EF31E8017910744F7600EFC
:1016B000711E8C819D81820D931D9D838C83DFCF54
:1016C000EC81FD81E415F505E9F62596E2E10C943F
:1016D0002117AF92BF92CF92DF92EF92FF920F93BA
:1016E000CF93DF936C015A017901D02FC62F6C2F55
:1016F00070E0E616F70644F00D2F9B01A501C60128
:101700000E94FF0ACF5FF3CFDF91CF910F91FF903F
:10171000EF90DF90CF90BF90AF900895AF92BF92BF
:10172000CF92DF92EF92FF920F93CF93DF93EC0172
:101730005B016A01790101E0AC010E94FF0A970197
:10174000A601B501C6010E94FF0A9501A601B501D7
:10175000CE010E94FF0A9701A601B701CE010E94A7
:10176000FF0ADF91CF910F91FF90EF90DF90CF9024
:10177000BF90AF900895A0E0B0E0E1ECFBE00C94E6
:1017800007172C014B018A01CC27DD27C41BD50B81
:10179000CC0FDD1F2196E12CF12C17FD51C041E04B
:1017A0005401A00EB11EB50132016E0C7F1CC301A5
:1017B0000E94D50A41E06401C01AD10AB601C301F2
:1017C0000E94D50A41E0B5015201AE18BF08C5011B
:1017D0000E94D50A41E0B601C5010E94D50AD7FF93
:1017E0000CC0CE01800F911F880F991F0297DCF467
:1017F0008FEFE81AF80AC70110C01C161D069CF4EA
:10180000CE018E199F09880F991F029764F001502D
:10181000110988279927801B910B880F991F019622
:10182000C80FD91FBACF8FEFE81AF80AC701801B7B
:10183000910B880F991FC80FD91F01501109ADCF07
:10184000CDB7DEB7E0E10C9423174F925F927F9201
:101850008F929F92AF92BF92CF92DF92EF92FF92C0
:101860000F931F93CF93DF9300D0CDB7DEB7A82E91
:10187000892EB62E622F842F49837A830E949D156C
:10188000FC01E080918049817A81411123C06C0183
:1018900082E0C80ED11C4B2C572E842D8B19891534
:1018A000C8F4F60171906F010A2D182D80E8F82E0A
:1018B000802F8A198E1550F44F2D4721B201C8018F
:1018C0000E94D50AF6940F5F1F4FF2CFFFEF4F1A19
:1018D0005F0AE3CF8E2D0F900F90DF91CF911F9174
:1018E0000F91FF90EF90DF90CF90BF90AF909F90BF
:1018F0008F907F905F904F9008954F925F927F926C
:101900008F929F92AF92BF92CF92DF92EF92FF920F
:101910000F931F93CF93DF9300D0CDB7DEB7982EF0
:10192000792EA62E622F842F49837A830E949D15DB
:10193000FC01B080818049817A81411124C06C0111
:1019400082E0C80ED11C4A2C572E842D8A19881586
:10195000D0F4F601E1906F01E094092D172D80E895
:10196000F82E802F89198B1550F44F2D4E21B2017E
:10197000C8010E94D50AF6940F5F1F4FF2CFFFEF08
:101980004F1A5F0AE2CF8B2D0F900F90DF91CF910E
:101990001F910F91FF90EF90DF90CF90BF90AF908D
:1019A0009F908F907F905F904F900895A0E0B0E05F
:1019B000ECEDFCE00C940C17B82EA92E7B01C42E84
:1019C0008901C82FD92FD12C88E099249394F8014C
:1019D0002081222321F12A3031F02D30D9F0283016
:1019E00029F4D92419C0E80EF11C16C04C2DB701FA
:1019F000CE01DD2019F00E947D0C02C00E94250C52
:101A0000C80FD11DF80160818C2D0E949D150E9488
:101A1000A41502C0CB2DDA2D0F5F1F4FD8CFCDB745
:101A2000DEB7EBE00C942817ACE3B0E0EAE1FDE0B0
:101A30000C9414179E01275B3F4F29964EAD5FAD66
:101A400029976CE370E0CE0101960E945D17182F74
:101A50009E012F5F3F4F27964FAD279726966EAD7D
:101A60007FAD269724968EAD9FAD24970E94D60C0D
:101A7000812FEC96E3E00C94301784B18C6284B92A
:101A80008CB58C658CBD089591E090932C068EBD2D
:101A90000DB407FEFDCF10922C068EB50895009769
:101AA00019F46115710511F141155105F9F021E0A5
:101AB00020932C0620E030E0009721F0DC01EC912F
:101AC000019601C0EFEFEEBD0DB407FEFDCFEEB500
:101AD0006115710521F0DB01EC936F5F7F4F2F5F84
:101AE0003F4F2417350741F710922C060895AB019C
:101AF00060E070E00E944F0D0895AB01BC0180E0F2
:101B000090E00E944F0D0895009719F4611571053A
:101B100051F14115510539F13093300620932F06CC
:101B200021E020932C069093340680933306709323
:101B300032066093310650932E0640932D068CB5E5
:101B400080688CBD8DB5E0913306F09134063097F6
:101B500041F0CF0101969093340680933306808143
:101B600001C08FEF8EBD08959A01AB0160E070E077
:101B70000E94840D08959A01AB01BC0180E090E0C1
:101B80000E94840D08951F920F920FB60F92112498
:101B90002F933F934F935F936F937F938F939F9375
:101BA000AF93BF93EF93FF93E0913106F09132062C
:101BB000309749F0CF010196909332068093310619
:101BC0008EB5808301C08EB580912D0690912E0632
:101BD000019790932E0680932D06892B89F0E09132
:101BE0003306F0913406309741F0CF01019690937F
:101BF000340680933306808101C08FEF8EBD0CC008
:101C000010922C068CB58F778CBDE0912F06F09149
:101C10003006309709F00995FF91EF91BF91AF9190
:101C20009F918F917F916F915F914F913F912F91F4
:101C30000F900FBE0F901F90189521E020932C0657
:101C400020E030E02617370779F0FC0141814EBDD6
:101C50000DB407FEFDCF029640814EBD0DB407FEC8
:101C6000FDCF2F5F3F4FEECF10922C060895FB0162
:101C700021E020932C0640E050E07FEF4E175F07F5
:101C8000A9F07EBD0DB407FEFDCF2EB530E0322F9A
:101C900022277EBD0DB407FEFDCF6EB5262BDC01DD
:101CA0002D933D93CD014F5F5F4FE8CF10922C06EF
:101CB000089588E284B981E58CBD08950DB407FECE
:101CC000FDCF8EBD0895CF93C82F88EF0E945E0E82
:101CD0008C2F8F700E945E0E8C2F8295807F0E94C9
:101CE0005E0ECF9108950E94590E8EE30E94630EFE
:101CF00080E40E94630E88EB0E94630E80EC0E94D9
:101D0000630E8FE30E94630E08951F920F920FB629
:101D10000F9211248F93EF93FF9389B18077809373
:101D20004D0683E080934E06E8E6F0E080818B7FED
:101D30008083E4E6F0E080818F7D8083A99AEEE6DF
:101D4000F0E0808182608083FF91EF918F910F900E
:101D50000FBE0F901F9018951F920F920FB60F9203
:101D600011242F933F934F935F936F937F938F93A0
:101D70009F93AF93BF93EF93FF9380914E06882379
:101D800009F459C080914E06815080934E0689B166
:101D9000807790914D06981731F093E090934E061E
:101DA00080934D0648C080914E06811144C08091B9
:101DB0004D06809352068091510640915206482765
:101DC000842F807311F19091510620915206207357
:101DD00030E084E0359527958A95E1F79073892F57
:101DE00090E09595879595958795822B932B8D30CF
:101DF000910521F480913506815005C0089729F49A
:101E0000809135068F5F8093350646FF0DC0809127
:101E1000520686FF03C010924F0606C081E08093F1
:101E2000360685E080934F068091520680935106D6
:101E300081E08093530680914E06811104C00E9478
:101E4000A7150E94B215FF91EF91BF91AF919F919D
:101E50008F917F916F915F914F913F912F910F9053
:101E60000FBE0F901F9018951F920F920FB60F92F2
:101E700011248F939F9391E09093540680914F0685
:101E8000882371F080914F06815080934F06809196
:101E90004F06811105C083E0809336069093530668
:101EA00080914C06823069F080915006882349F079
:101EB000809150068A3528F4809150068F5F809378
:101EC0005006809164008E7F8093640080917A0038
:101ED000806480937A009F918F910F900FBE0F9036
:101EE0001F9018951F920F920FB60F9211242F93E7
:101EF0008F939F93809102018823C1F08091790094
:101F000020910101805A809590E0820F911D959556
:101F100087958093010180914C068230D9F080E64C
:101F200080937C00439A1092020114C08091790042
:101F3000869590910001865F981708F4892F809309
:101F40004B068093B4008EE680937C00439881E03A
:101F500080930201809164008160809364009F916E
:101F60008F912F910F900FBE0F901F901895109288
:101F70004C068FEF80930001089581E080934C061A
:101F800084E1809300010E94B9150E94B215089562
:101F900082E080934C06E8E6F0E080818B7F8083CE
:101FA0005A982398E4E6F0E0808184648083089561
:101FB0008091430690914406A0914506B091460653
:101FC00080933A0690933B06A0933C06B0933D065F
:101FD0008091470690914806A091490680933E065D
:101FE00090933F06A093400610924A0683E68093A2
:101FF000370680913D06843608F083E680933806E4
:1020000081E08093500608958EE396E00E941C0ABA
:102010008AE396E00E94580A089563E476E087E434
:1020200096E00E949F0981E496E00E94E5090895E8
:1020300080914C06813059F018F08230B1F01AC00E
:10204000809101018835C0F40E94BD0F08958091F0
:102050000101833518F40E94C80F08958091010191
:10206000893550F00E94B70F0895809101018435A1
:1020700018F0EACF10924C060895A1E0B0E0E3E436
:10208000F0E10C941217E7E4F6E01281018180E0A0
:102090000E94B2148AE0F82E812F6F2D0E94E5165F
:1020A00064E199830E94BA1466E29981892F0E94A3
:1020B000BA1468E38AE00E94BA14802F6F2D0E9440
:1020C000E5166AE499830E94BA146CE59981892F18
:1020D0000E94BA142196E5E00C942E170F931F93DB
:1020E000CF93DF9305E316E0F80183811F928F936E
:1020F000CBEDD1E0DF93CF931F921F921F921F92DF
:102100001F920E94140DF8018181282F082E000CC7
:10211000330B3F938F93DF93CF931F921F928AE0ED
:102120008F931F921F920E94140D809101011F92A4
:102130008F93DF93CF931F921F9284E18F931F920F
:102140001F920E94140D8DB79EB74B960FB6F89450
:102150009EBF0FBE8DBFDF91CF911F910F9108954C
:102160000F931F93CF93DF93809140062AE0622F55
:102170000E94E5168C0180913F060E94E516D82F3B
:10218000C92F80E00E94B21480914A0664E1843035
:1021900041F4802F0E94131566E2812F0E941315CF
:1021A00007C0802F0E94BA1466E2812F0E94BA14E1
:1021B00068E38AE00E94BA1480914A066AE4853096
:1021C00041F48D2F0E9413156CE58C2F0E9413157E
:1021D00007C08D2F0E94BA146CE58C2F0E94BA1490
:1021E00090914A0680913D06911117C01F928F93DE
:1021F0008FED91E09F938F931F921F9287E38F93B0
:102200001F921F920E94140D8DB79EB709960FB6AC
:10221000F8949EBF0FBE8DBF16C01F928F9388EE9D
:1022200091E09F938F931F921F9287E38F931F924A
:102230001F920E94140D8DB79EB709960FB6F894A1
:102240009EBF0FBE8DBF20914A0690913B068091A4
:102250003C06213029F51F929F9390E001974AE0B8
:10226000489F9001499F300D1124C901815F9E4F05
:102270009F938F938FEE91E09F938F931F921F9266
:1022800087E38F931F9284E28F930E94140D8DB782
:102290009EB70B960FB6F8949EBF0FBE8DBF4BC076
:1022A000223029F51F929F9390E001974AE0489FC2
:1022B0009001499F300D1124C901815F9E4F9F936A
:1022C0008F938AEF91E09F938F931F921F9287E3E2
:1022D0008F931F9284E28F930E94140D8DB79EB747
:1022E0000B960FB6F8949EBF0FBE8DBF24C01F92F1
:1022F0009F9390E001974AE0489F9001499F300DDD
:102300001124C901815F9E4F9F938F9385E092E0D6
:102310009F938F931F921F9287E38F931F9284E264
:102320008F930E94140D8DB79EB70B960FB6F8943D
:102330009EBF0FBE8DBF90914A0680913A069330A2
:1023400019F590E001974CE0489F9001499F300DAE
:102350001124C90189579E4F9F938F938EE092E07D
:102360009F938F931F921F928AE28F931F9287E110
:102370008F930E94140D8DB79EB709960FB6F894EF
:102380009EBF0FBE8DBF22C090E001974CE0489FDA
:102390009001499F300D1124C90189579E4F9F9389
:1023A0008F9383E192E09F938F931F921F928AE213
:1023B0008F931F9287E18F930E94140D8DB79EB764
:1023C00009960FB6F8949EBF0FBE8DBFDF91CF91D7
:1023D0001F910F910895A1E0B0E0E1EFF1E10C94BD
:1023E00014171091380685E396E00E94BA0A90917E
:1023F0004A06923009F442C028F4992361F09130E2
:10240000E1F07EC0943009F45CC008F449C0953016
:1024100009F469C075C010933D06813009F070C0A1
:1024200080934A068BE08093370680913C0681506A
:102430008C3008F455C08BE053C091E0910F90931D
:102440003C06813009F05CC082E080934A06E92FA7
:10245000F0E0EE5FFE4F8081923029F490913D06CE
:10246000937009F48F5F9FEF980F909337068091D8
:102470003B0681509817A0F5892F32C01F5F10933B
:102480003B068130E9F583E080934A0686E080933D
:10249000370680913A068150873010F186E020C0DF
:1024A0001F5F10933A06813059F584E080934A0605
:1024B00087E18093370680914006883188F087E174
:1024C0000FC0109340068130D9F485E080934A060E
:1024D0008BE38093370680913F068C3308F08BE3C3
:1024E000809338060DC010933F06813049F486E092
:1024F00080934A061092380610923E0681E001C091
:1025000080E089830E94B01089812196E3E00C94D9
:1025100030170F93809101018B3518F40E94151626
:102520000BC000E025E130E04FE750E065E070E0EF
:1025300084E790E00E94690B8091430690E0019748
:102540004CE0489F9001499F300D112429573E4F80
:1025500040E06AE270E087E190E00E94D60C809152
:1025600041061F928F9386E192E09F938F931F9273
:102570001F9280E38F931F9287E68F930E94140D22
:10258000809146061F928F938091450690E00197B7
:102590004AE0489F9001499F300D1124C901815F95
:1025A0009E4F9F938F93809144061F928F938BE150
:1025B00092E09F938F931F921F9287E38F931F92B6
:1025C0001F920E94140D8DB79EB746960FB6F894D1
:1025D0009EBF0FBE8DBF0F910895A1E0B0E0E3EF65
:1025E000F2E10C941417162F882311F088EF01C024
:1025F0008AEF89832A9A61E070E0CE0101960E94F9
:10260000770D812F807F898361E070E0CE01019694
:102610000E94770D1295107F198361E070E0CE0162
:1026200001960E94770D2A982196E3E00C943017CA
:1026300061E081E00E94ED128FE79CE00197F1F7E5
:1026400000C00000089562E081E00E94ED1280EC7D
:102650008A95F1F70895882311F085E001C084E0A0
:1026600061118260682F81E00E94ED1280EC8A95F2
:10267000F1F70895882311F08CE001C088E0611122
:10268000826041118160682F81E00E94ED1280EC30
:102690008A95F1F70895882311F088E101C080E15F
:1026A00061118460682F81E00E94ED1280EC8A95B0
:1026B000F1F70895882311F064E201C060E281E03F
:1026C0000E94ED1280EC8A95F1F708958F73682FC0
:1026D000606481E00E94ED1280EC8A95F1F7089524
:1026E0008F73682F606881E00E94ED1280EC8A95FC
:1026F000F1F7089561E081E00E94ED1280EC8A9587
:10270000F1F70895882311F063E001C062E081E0F1
:102710000E94ED1280EC8A95F1F708958370682F7E
:10272000646081E00E94ED1280EC8A95F1F70895D3
:10273000882311F084E301C080E361118260682F77
:1027400081E00E94ED1280EC8A95F1F708958F7375
:10275000682F606481E00E94ED1280EC8A95F1F7A9
:102760000895CF93C62F682F606881E00E94ED1214
:102770006C2F6F70606881E00E94ED1280EC8A958A
:10278000F1F7CF910895262F30E053E03595279546
:102790005A95E1F750915606529FF001539FF00D64
:1027A0001124677051E001C0550F6A95EAF728E0DF
:1027B000429FE00DF11D1124E80FF91F27E030E0E2
:1027C00080E061E070E09191952339F0DB01022E09
:1027D00001C0AA0F0A94EAF78A2B2150310998F711
:1027E0000895FF920F931F93CF93DF938C01C0E066
:1027F00060E08C2F0E94B113D0E04D2F6C2FC801E8
:102800000E94C313682F80E00E94ED12DF5FD03179
:10281000A1F7D0E080E2F82EFC0E4D2F6F2DC801FD
:102820000E94C313682F80E00E94ED12DF5FD03159
:10283000A1F7CF5FC032E1F6CDB7DEB7E5E00C948B
:102840002E172F9A2A98279A229A089580E00E949C
:102850005A136CE081E00E94ED1280EC8A95F1F74A
:102860000E94181361E080E00E942B13089581E01C
:102870000E945A1361E081E00E94981308958093AA
:102880005606609355060E9421140E943D0D2FEFBD
:1028900089EF90E0215080409040E1F700C00000B7
:1028A0002F988FE19EE40197F1F700C000002F9A66
:1028B00080E00E945A130E943714089580E28093AA
:1028C000B800089584EA8093BC008091BC0087FF23
:1028D000FCCF8091B900887F883041F09091B90099
:1028E000987F81E0903119F080E0089581E00895AB
:1028F00084E98093BC0008958093BB0084E88093B2
:10290000BC008091BC0087FFFCCF0895A1E0B0E03F
:10291000ECE8F4E10C941417182F69830E946214F8
:102920006981862F0E947C14812F0E947C1484E987
:102930008093BC002196E3E00C94301784EC8093E4
:10294000BC008091BC0087FFFCCF8091BB00089544
:1029500084E88093BC008091BC0087FFFCCF80910D
:10296000BB000895843010F4809357060895809139
:1029700057060895A0E0B0E0E0ECF4E10C940617EF
:1029800067FD4BC0C09157069CE0C99FE001112430
:10299000C80FD11DCC0FDD1FCC0FDD1FC859DF4F75
:1029A000613720F080E8E82EE61A02C080E1E82EC8
:1029B000562EF12CFE010491F0E10F9F80011124AD
:1029C000085D1E4F6801352C301AAF2CAA0CAA0CDA
:1029D000AA0CB12CF6014490612C712C832C8C0C28
:1029E000912C442D4170B3016A0D7B1DC4010E94DE
:1029F000D50A4694FFEF6F1A7F0A88E068167104C3
:102A000081F79FEFC91AD90A8C2D801B8E1510F300
:102A1000F3942196E4E0FE12CDCF81E0CDB7DEB78E
:102A2000E1E10C942217A0E0B0E0E9E1F5E10C94BB
:102A3000061767FD4CC0C09157069CE0C99FE00196
:102A40001124C80FD11DCC0FDD1FCC0FDD1FC859BD
:102A5000DF4F613720F080E8582E561A02C080E11F
:102A6000582EF62E412CFE010491F0E10F9F8001BB
:102A70001124085D1E4F68013F2C301AA42CAA0CAB
:102A8000AA0CAA0CB12CF601E490E094612C712CF4
:102A9000832C8C0C912C4E2D4170B3016A0D7B1D43
:102AA000C4010E94D50AE694FFEF6F1A7F0A88E0FE
:102AB0006816710481F79FEFC91AD90A8C2D801B03
:102AC000851508F343942196E4E04E12CCCF81E0C3
:102AD000CDB7DEB7E1E10C942217282FFB0164E6A5
:102AE0000E94E516382F892F6AE00E94E516982F7C
:102AF000811104C091E0411190E091959083822F63
:102B00006AE00E94E5169183832F0895A8E5B6E058
:102B10002AE0829FC001112420E030E0F901E80F93
:102B2000F91FE850F84FE491ED932F5F3F4F2A30A3
:102B30003105A1F788E596E00895862F0E94861555
:102B40000895FC0180810895FC0181810895EEE6DD
:102B5000F0E080818D7F8083E4E6F0E08081806218
:102B600080830895DA9AE8E6F0E0808184608083CB
:102B70000895E4E6F0E080818B7B8083239A5A9A63
:102B80000E94C00A089584B18F6284B93B9A88B1CB
:102B9000806388B98AB18C688AB98BB1806F8BB930
:102BA000EDE6F0E08081806780830E94B2150E948C
:102BB000B915EEE7F0E0808181608083EAE7F0E01C
:102BC00080818E6880838EE680937C0082E084BD65
:102BD00085B5856085BD84E087BD0E94A7151092EC
:102BE00080008DE08093810084E89EE190938900CD
:102BF00080938800E4E6F0E08081877F8083B19A4B
:102C0000AFE6B0E08C9182608C9381E28093B0005B
:102C1000A1EBB0E08C9182608C9380E88093B4004B
:102C200080818360808378940895FF920F931F932F
:102C3000CF93DF9326E030E04BE750E065E070E0B3
:102C400088E790E00E948E0B25E130E04FE750E0EE
:102C500067E070E084E790E00E948E0B90910101A4
:102C600085E6F82EF91AC9E0D0E011E0CF1508F496
:102C700010E0012F9E014DE750E0BE0186E790E095
:102C80000E94FF0ABE016F5F7F4F9B014DE750E03E
:102C900086E790E00E94FF0A2396C531D10529F707
:102CA000CDB7DEB7E5E00C942E170E94C3150E9445
:102CB0005E140E943309D6E0C4E001E0809153061F
:102CC0008823C1F01092530685E396E00E94A10A82
:102CD0008091500681110093500680913606833012
:102CE00059F485E396E00E94BA0A0E94D80F11E0D9
:102CF000D7E003C010E001C011E00E9418108091DD
:102D00004C06823009F44DC0D63019F0D730C1F0EE
:102D100045C080915406882309F440C0109254069F
:102D2000CF5FC530D9F50E940D10809147066C2FFA
:102D30000E94E516C92F0E943D100E9489122FC0E3
:102D40000E94EB118823F9F00E94041080913E0646
:102D500090913F06A09140068093470690934806C5
:102D6000A093490680913A0690913B06A0913C06BB
:102D7000B0913D068093430690934406A093450688
:102D8000B093460606C0809150068A3539F41092F9
:102D900050060E943D100E948912D6E011110E9437
:102DA000CE0A83B7817F83BF83B7816083BF889555
:102DB00083B78E7F83BF82CFE5E3F6E01082118276
:102DC00083E68283138214820895991B79E004C0FC
:102DD000991F961708F0961B881F7A95C9F780955A
:102DE000089597FB072E16F4009407D077FD09D0BD
:102DF0000E943C1707FC05D03EF4909581959F4FAB
:102E00000895709561957F4F08952F923F924F924C
:102E10005F926F927F928F929F92AF92BF92CF926A
:102E2000DF92EF92FF920F931F93CF93DF93CDB773
:102E3000DEB7CA1BDB0B0FB6F894DEBF0FBECDBFEB
:102E400009942A88398848885F846E847D848C84BC
:102E50009B84AA84B984C884DF80EE80FD800C81C5
:102E60001B81AA81B981CE0FD11D0FB6F894DEBFA8
:102E70000FBECDBFED010895AA1BBB1B51E107C0DA
:102E8000AA1FBB1FA617B70710F0A61BB70B881FFA
:102E9000991F5A95A9F780959095BC01CD01089589
:102EA000EE0FFF1F0590F491E02D0994DC0101C0A5
:102EB0006D9341505040E0F70895AEE0B0E0E3E696
:102EC000F7E10C9413178C01CA0146E04C831A8376
:102ED000098377FF02C060E070E8FB013197FE8351
:102EE000ED83A901BC01CE0101960E9489174D8195
:102EF0005E8157FD0AC02F813885421753070CF4B5
:102F00009A01F801E20FF31F10822E96E4E00C9470
:102F10002F17ACE0B0E0EFE8F7E10C9405177C0167
:102F20006B018A01FC0117821682838181FFBDC17A
:102F3000CE0101964C01F7019381F60193FD859135
:102F400093FF81916F01882309F4ABC1853239F475
:102F500093FD859193FF81916F01853229F4B7012B
:102F600090E00E947119E7CF512C312C20E02032E3
:102F7000A0F48B3269F030F4803259F0833269F476
:102F800020612CC08D3239F0803339F4216026C0A5
:102F90002260246023C0286021C027FD27C030EDB7
:102FA000380F3A3078F426FF06C0FAE05F9E300D05
:102FB0001124532E13C08AE0389E300D1124332E75
:102FC00020620CC08E3221F426FD6BC1206406C045
:102FD0008C3611F4206802C0883641F4F60193FD66
:102FE000859193FF81916F018111C1CF982F9F7DB2
:102FF0009554933028F40C5F1F4FFFE3F9830DC005
:10300000833631F0833771F0833509F05BC022C01D
:10301000F801808189830E5F1F4F44244394512C13
:10302000540115C03801F2E06F0E711CF801A08048
:10303000B18026FF03C0652D70E002C06FEF7FEF07
:10304000C5012C870E9466192C0183012C852F77DE
:10305000222E17C03801F2E06F0E711CF801A0801B
:10306000B18026FF03C0652D70E002C06FEF7FEFD7
:10307000C5012C870E945B192C012C852068222E0B
:10308000830123FC1BC0832D90E048165906B0F441
:10309000B70180E290E00E9471193A94F4CFF501F3
:1030A00027FC859127FE81915F01B70190E00E9486
:1030B000711931103A94F1E04F1A5108411451043A
:1030C00071F7E5C0843611F0893639F5F80127FF2C
:1030D00007C060817181828193810C5F1F4F08C09E
:1030E00060817181072E000C880B990B0E5F1F4FBA
:1030F0002F76722E97FF09C09095809570956195F7
:103100007F4F8F4F9F4F2068722E2AE030E0A4013E
:103110000E94A919A82EA81844C0853729F42F7E2B
:10312000B22E2AE030E025C0F22FF97FBF2E8F3675
:10313000C1F018F4883579F0B4C0803719F08837B9
:1031400021F0AFC02F2F2061B22EB4FE0DC08B2D09
:103150008460B82E09C024FF0AC09F2F9660B92E44
:1031600006C028E030E005C020E130E002C020E1E8
:1031700032E0F801B7FE07C06081718182819381DE
:103180000C5F1F4F06C06081718180E090E00E5F90
:103190001F4FA4010E94A919A82EA818FB2DFF7784
:1031A0007F2E76FE0BC0372D3E7FA51450F474FEA3
:1031B0000AC072FC08C0372D3E7E05C0BA2C372DE0
:1031C00003C0BA2C01C0B52C34FF0DC0FE01EA0DBE
:1031D000F11D8081803311F4397E09C032FF06C0B1
:1031E000B394B39404C0832F867809F0B39433FD6D
:1031F00013C030FF06C05A2CB31418F4530C5B18DC
:10320000B32CB31468F4B70180E290E03C870E94CD
:103210007119B3943C85F5CFB31410F43B1801C079
:10322000312C34FF12C0B70180E390E03C870E944C
:1032300071193C8532FF17C031FD03C088E790E06B
:1032400002C088E590E0B7010CC0832F867859F062
:1032500031FF02C08BE201C080E237FD8DE2B70191
:1032600090E00E947119A51438F4B70180E390E052
:103270000E9471195A94F7CFAA94F401EA0DF11D36
:103280008081B70190E00E947119A110F5CF332021
:1032900009F451CEB70180E290E00E9471193A948E
:1032A000F6CFF7018681978102C08FEF9FEF2C96B2
:1032B000E2E10C942117FC0105906150704001106F
:1032C000D8F7809590958E0F9F1F0895FC0161504F
:1032D000704001900110D8F7809590958E0F9F1F38
:1032E00008950F931F93CF93DF93FB01238121FD5B
:1032F00003C08FEF9FEF28C022FF16C04681578181
:10330000248135814217530744F4A081B1819D0186
:103310002F5F3F4F318320838C93268137812F5F2E
:103320003F4F3783268310C0EB01092F182F0084ED
:10333000F185E02D0995892BE1F68E819F8101961B
:103340009F838E83812F902FDF91CF911F910F91BB
:103350000895FA01AA27283051F1203181F1E8942B
:103360006F936E7F6E5F7F4F8F4F9F4FAF4FB1E078
:103370003ED0B4E03CD0670F781F891F9A1FA11D73
:10338000680F791F8A1F911DA11D6A0F711D811D74
:10339000911DA11D20D009F468943F912AE0269F39
:1033A00011243019305D3193DEF6CF010895462F98
:1033B0004770405D4193B3E00FD0C9F7F6CF462F79
:1033C0004F70405D4A3318F0495D31FD40524193E2
:1033D00002D0A9F7EACFB4E0A6959795879577959F
:1033E0006795BA95C9F700976105710508959B0126
:1033F000AC010A2E06945795479537952795BA95AF
:10340000C9F7620F731F841F951FA01D0895F894BC
:02341000FFCFEC
:10341200805C011F1C1F1E1F1E1F1F1E1F1E1FDF81
:10342200EDE2E0F0FC00000000D4E5E2F0E0EBFCAD
:10343200000000CCE0F0F2000000000000C0EFF05D
:10344200E5EBFC00000000CCE0E900000000000019
:1034520000C8FEEDFC000000000000C8FEEBFC000E
:103462000000000000C0E2E3F3F1F200000000D12E
:10347200E5EDF2FFE1F0FC0000CEEAF2FFE1F0FC44
:10348200000000CDEEFFE1F0FC00000000C4E5EA20
:10349200E0E1F0FC000000C2EEF1EAF0E5F1E5ED5A
:1034A200FCE500CFEEEDE5E4E5EBFCEDE8EA00C279
:1034B200F2EEF0EDE8EA2020202000D1F0E5E4E091
:1034C20020202020202000D7E5F2E2E5F0E32020B2
:1034D200202000CFFFF2EDE8F6E02020202000D1EE
:1034E200F3E1E1EEF2E02020202000253364000821
:1034F2003230253032640800323025303264000820
:1035020025730820256420202000257320082564C7
:103512000820202000257320256420202000082573
:1035220073080025730025640743002532642025B3
:0C3532007320323025303264202020004D
:00000001FF
